:020000040800F2
:10000000C0110020210C0008453300080D0C000829
:100010000D0C00080D0C00080D0C0008000000007D
:10002000000000000000000000000000E10C0008DB
:100030000D0C000800000000810C00085D1D000888
:10004000690E0008690E0008690E0008690E0008B4
:10005000690E0008690E0008690E0008690E0008A4
:10006000690E0008690E0008690E0008690E000894
:10007000690E0008690E0008690E0008690E000884
:10008000690E0008690E0008690E0008690E000874
:10009000690E0008690E0008690E0008690E000864
:1000A000690E0008690E0008690E0008690E000854
:1000B000690E0008690E0008690E0008690E000844
:1000C000690E0008690E0008690E0008690E000834
:1000D000690E0008690E0008690E0008690E000824
:1000E000690E0008690E0008690E0008690E000814
:1000F000690E0008690E0008690E0008690E000804
:10010000690E0008690E0008690E0008690E0008F3
:10011000690E0008690E0008690E0008690E0008E3
:10012000690E0008690E0008690E0008690E0008D3
:10013000690E0008690E0008690E0008690E0008C3
:10014000690E0008690E0008690E0008690E0008B3
:10015000690E0008690E0008690E0008690E0008A3
:10016000690E0008690E0008690E0008690E000893
:10017000690E0008690E0008690E0008690E000883
:08018000690E0008690E000879
:1001880053B94AB9002908BF00281CBF4FF0FF31F6
:100198004FF0FF3000F00CB8ADF1080C6DE904CE5B
:1001A80000F008F8DDF804E0DDE9022304B0704748
:1001B800704700BF2DE9F04786468C460846089EE2
:1001C800154674461946002B40F0C2808542B2FAA3
:1001D80082F245D94AB1C2F1200300FA02FC2EFA94
:1001E80003F3954043EA0C0C94404FEA154EA8B22D
:1001F800BCFBFEF8230C0EFB18CC08FB00F943EA05
:100208000C43994528D9EB1808F1FF3704D29945D2
:1002180002D9A8F102072B44A3EB0903A4B2B3FB4C
:10022800FEFC0EFB1C330CFB00F044EA0344A04226
:1002380014D92C190CF1FF3304D2A04202D9ACF125
:1002480002032C44241A43EA07401EB1D440002379
:1002580034607360BDE8F0874746DDE76346F1E741
:1002680092BB431B01214FEA154EAFB2B3FBFEFC14
:10027800200C0EFB1C330CFB07F840EA034398459F
:1002880062D9EB180CF1FF3004D2984502D9ACF1D1
:1002980002002B44A3EB0803A4B2B3FBFEFC0EFB45
:1002A8001C330CFB07F744EA0344A7424ED92C1928
:1002B8000CF1FF3304D2A74202D9ACF102032C445B
:1002C800E41B43EA0040C0E7C2F1200320FA03F12F
:1002D800954090402EFA03F303434FEA154EAFB210
:1002E800B1FBFEFC0EFB1C10190C0CFB07F841EAD5
:1002F8000041884504FA02F422D969180CF1FF304C
:1003080004D2884502D9ACF102002944A1EB0801C6
:100318009BB2B1FBFEFC0EFB1C110CFB07F743EA7A
:1003280001439F420ED9EB180CF1FF3104D29F42D2
:1003380002D9ACF102012B44DB1B41EA004192E7F0
:100348006046E3E76146F7E76046A3E76346B7E739
:10035800834206D916B9002108467BE7C6E900E0C2
:10036800F9E7B3FA83F78FB9834201D3724508D806
:10037800BEEB020460EB030301209C461EB900217A
:1003880068E73846FAE7C6E9004CF8E7C7F1200CF9
:10039800BB4022FA0CF41C432EFA0CF120FA0CF3A1
:1003A800B84001434FEA14490EFA07F5B3FBF9F8D0
:1003B8001FFA84FE09FB18300B0C08FB0EFA43EAFF
:1003C80000439A4502FA07F240D9E31808F1FF30D2
:1003D80004D29A4502D9A8F102002344A3EB0A03E8
:1003E80089B2B3FBF9F809FB183308FB0EFE41EAA2
:1003F80003418E452CD9611808F1FF3304D28E458C
:1004080002D9A8F10203214443EA0040A0FB029864
:10041800A1EB0E014145CE46434602D306D14D45D8
:1004280004D2B9EB020E68EB04030138002EA6D003
:10043800B5EB0E0261EB030101FA0CFC22FA07F39B
:100448004CEA0303F940C6E9003198E74046C5E79E
:100458004346D9E7284C2949294808B500F054F8FB
:100468000C23274823700122214600F05BF8254918
:100478002348012200F076F80F2521482570022232
:10048800214600F04FF81F491D48022200F06AF883
:100498001B4825700322214600F044F819491848E2
:1004A800032200F05FF81423154823700422214624
:1004B80000F038F813491248042200F053F81048A5
:1004C80000F072F80F490E48042200F04BF80D496D
:1004D8000B48032200F046F80A490948022200F0B6
:1004E80041F808490648012200F03CF8002142F290
:1004F800107003F06DFEF9E7F103002008490008C9
:1005080010020020F003002008B50160086803F01D
:10051800C8FD20B9BDE80840014802F0F9BE08BD91
:10052800064B00081FB50B788DF8023052BA0368E5
:10053800ADF80020032218689B88029202228DF8E9
:100548000C2001A90122CDF804D002F062FE10B1FE
:10055800034802F0DDFE02F06BFE05B05DF804FB17
:100568001E4B000810B588B0036852BA18689B88FB
:1005780005910121ADF80420069101AA07210292F4
:10058800002402228DF81C1002A903928DF8104055
:1005980002F03FFE10B1034802F0BAFE02F048FE36
:1005A80008B010BD1E4B000830B599B0044608AD20
:1005B8004022FF21284603F07BFE236800220DF12C
:1005C800070118688DF807209B8802918DF8102084
:1005D800012140220391069202A9022205958DF875
:1005E8001C2002F016FE10B1034802F091FE02F042
:1005F8001FFE19B030BD00BF1E4B0008014B1B6821
:10060800184700BF00000020014B1860704700BF6A
:100618000000002030B585B004460D4610220021A8
:10062800684603F045FE02238DF802302A46044B43
:1006380001932146684602F08FFB05B030BD00BF2C
:100648000506000880B505460E461746984602F08E
:100658001BF9034603F098FEDFF81890044649F8A2
:100668000030424630463946A84754F8090000F0A1
:10067800EDFA00BF08000000034A536823F00203A4
:1006880053600020704700BF002004E0084B1A6840
:1006980042F480721A601A6842F400721A601A688A
:1006A80042F480621A60034B034A1A60704700BF25
:1006B800003C0240240000200024F400014B0360A9
:1006C80000207047104900080648074A08B5121A62
:1006D800002102F02BFE0548054A0021121A02F0FB
:1006E80025FE08BD60000020F8030020000000106F
:1006F800000000100A480B4A0B4908B5121A02F00C
:1007080017FE0A480A4A0B49121A02F011FE0A4853
:100718000A4A0B49BDE80840121A02F009BE00BF98
:100728000000002060000020985000080000002011
:100738000000002098500008000000100000001081
:10074800F850000838B505460C4699B1D1E901239F
:100758000F48096802F0DCFDD4E90423E1680D487C
:1007680002F0D6FDE1690C4802F0D2FDA1690B4800
:1007780002F0CEFD012D05D1EFF3058108481039AF
:1007880002F0C6FD21462846BDE8384001F04CBCC1
:10079800494B0008794B0008A94B0008B94B0008E1
:1007A800E84B000830BFFFF7FDBF00BF2DE9F0415F
:1007B8000B4EDFF8308006EB0807CC1B05463246A7
:1007C8000949204603F066FDA01942460021083C6D
:1007D80003F06EFD2C6707F10800BDE8F08100BF4B
:1007E800000000000400000008490008054B5A6991
:1007F8009B689A421FBF044A536843F08053536072
:10080800704700BFC403002000ED00E02DE9F84365
:10081800324D804632488946174602F079FDAB6A68
:10082800DE0622D52F4802F073FD1124AB6A1D079E
:1008380003D52D4802F06CFD1224284DAB6A9807A9
:1008480015D52A4802F064FD6E6BAB6A190642D5CD
:100858002748314602F05CFDB9F1000F03D0AB6ABE
:1008680023F08003AB62132403E01024DEE76FF06B
:1008780015061A4DAB6ADA0703D51E4802F048FD83
:100888001424AB6A9B0603D51B4802F041FD1524CE
:10089800124B9A6AD50602D49A6A90070AD55B6801
:1008A800190507D54146304600F094FA10B180F397
:1008B80009880224094B9A6A920642BF5A6A22F4AE
:1008C80000525A629A6A42F0FF029A6200233B7011
:1008D8002046BDE8F8836FF01506C4E700ED00E098
:1008E800FC4B0008134C0008474C00085B4C000800
:1008F800744C00088B4C0008AB4C000810B51D4C1C
:100908001D4802F005FDA36A990130D51B4802F085
:10091800FFFC1E20A36ADA0103D5194802F0F8FC8F
:100928001F20144CA36A1B0303D5164802F0F0FCE1
:100938002120A36A590303D5134802F0E9FC2220B9
:100948000C4CA36A9A0303D5104802F0E1FC23205B
:10095800A36ADB0303D50E4802F0DAFC2420054A1B
:10096800936A6FEA03436FEA1343936210BD1D2035
:10097800D0E700BF00ED00E0DB4C0008F44C0008B5
:10098800084D0008234D0008424D0008684D000836
:10099800834D000870B5244C064624480D4602F0E5
:1009A800B7FCA36AD90435D5214802F0B1FC172059
:1009B800A36A1A0503D51F4802F0AAFC18201A4C8E
:1009C800A36A9B050FD51C4802F0A2FCA16BA36A81
:1009D800180407D5194802F09BFC1EB1A36A23F43A
:1009E8000043A3621920104CA36A590503D5144883
:1009F80002F08EFC1A20A36ADA050DD5114802F020
:100A080087FC1B20084A936A43F47F4393620023C0
:100A18002B7070BD1620CBE7A36A9B04F2D50A4859
:100A280002F076FC1C20EDE700ED00E0AF4D000879
:100A3800C64D0008474C0008D84D0008F24D000884
:100A4800084E0008244E0008AB4C00082DE9F04180
:100A58005B4B5F688AB00446C7F30806002585F338
:100A68001188BFF36F8F02F07F43B3F17F4F06D138
:100A780002F00C03082B13D1524802F049FC002560
:100A88002C464FF00008F31E8DF80780092B00F262
:100A98008680DFE803F00A7A7E7684848484848200
:100AA80010074CBF0C460125EBE74748444E02F0BF
:100AB8002FFC8DF80780F36A9A0704D5434802F0A3
:100AC80027FC002330E0F36A002B01DA4048F6E700
:100AD800F36A5B00F5D53F4802F01AFC7369A26916
:100AE80043F480737361BFF34F8FBFF36F8F7369E4
:100AF80032F8022C23F480737361BFF34F8FBFF376
:100B08006F8F4DF602739A4209D0B36ADBB253B3C2
:100B18000DF1070201212046FFF778FE33E0216836
:100B28002D4802F0F5FB23689DF80720C2B902AEF4
:100B380004F1200720686168324603C20834BC42C9
:100B48001646F7D1099AB5B3C2F3080121B96FEA7D
:100B580052226FEA4222099202A91846FFF7F2FDD3
:100B68000AB0BDE8F081B36A13F47F4F05D00DF1E8
:100B780007010120FFF70EFF05E0B36AB3F5803FD8
:100B88009FD3FFF7BBFE0346CEE70DF10702002116
:100B9800C1E70DF107010020ECE710488FE7104B83
:100BA8001049114817F4F87FA6F1100218BF19462A
:100BB80002F0AEFB85E722F4FF7222F00102CAE7D9
:100BC80000ED00E06B4E0008974E0008AF4E00089D
:100BD800D14E0008E04E0008004F00081D4F0008E5
:100BE800524E00083D4E0008424F0008044B5A6917
:100BF80042F010025A615A6922F008025A6170479D
:100C080000ED00E0EFF30880EFF3098101B57246CB
:100C1800FFF71CFF01BD00BF0A4880F308881020B9
:100C280080F3118808484FF40461401880F309885C
:100C3800EFF314800221084380F31488BFF36F8F09
:100C480000F090F8C011002000040020084B9B68B9
:100C580083420BD1EFF3058343B1064B5A6842F048
:100C680080525A605A6A22F400425A6201F012BE57
:100C7800C403002000ED00E014498A684FF03000FA
:100C88001044EFF3098C80E8F01F102080F31288DD
:100C9800BFF36F8F0E4F4FF000664A698A603E605F
:100CA800106F0C4C2060506F0023536780F311883D
:100CB80004B5104600F0F2F8BDE8044002F1300037
:100CC80090E8F01F8CF3098870470000C4030020E7
:100CD80004ED00E0140200201EF0040F0CBFEFF337
:100CE8000880EFF30980816911F8021C0229FFD0FE
:100CF80001B5724602F01EFB01BD00BF40B20028DC
:100D080007DB044A4109012300F01F00834042F831
:100D18002130704700E100E040B20028A8BF00F190
:100D2800604001F10101B8BF064B4FEA0111ACBFA9
:100D380000F5614000F00F00C9B2B4BF195480F843
:100D48000013704714ED00E0044B054A23F07F03BD
:100D58009360BFF34F8FBFF36F8F70470000000899
:100D680000ED00E008B5FFF7EFFF0B4AD2F8883036
:100D780023F47003C2F88830EFF3148323F00403DC
:100D880083F31488BFF36F8FFFF79EFCFFF7B2FC65
:100D980000F05AF801F010FA00ED00E042F8203CAB
:100DA800009B42F81C3C0A49019B42F8183C029BF4
:100DB80042F8143C21F001014FF0807342F8043CE2
:100DC80042F8081C0023203A02654367704700BFB9
:100DD8004D060008094A0346906870B113F1160FD2
:100DE800006E05D0A0F140029A4205D8834203D292
:100DF800814228BF0020704700207047C4030020AC
:100E080008B515460B4A0C4B9060026F1A600E46E7
:100E180000F044F82C4686F309880020034B9847D5
:100E28002046002100220023014C2047613300089E
:100E38004D060008C403002014020020014B1022B4
:100E48001A61704700ED00E0044800231021C21821
:100E58000133522B82F80013F9D1704700E100E00A
:100E680008B5EFF30583064A103B02EBC30152F8BD
:100E7800330049688847BDE80840FFF7B7BC00BFA2
:100E8800FC450008024B034A0348012100F076B8EC
:100E9800000002200000002010490008026E054BE7
:100EA800403A1A60044A4021C3E901121846012158
:100EB80000F06EB81802002000000B15084AC2F8AE
:100EC80098000B6823F01F03034343F01003C2F894
:100ED8009C308B6843F00103C2F8A030704700BF14
:100EE80000ED00E02DE9F043DFF8608085B00E46A4
:100EF8001F4604464FF00009B14523DA6068D8B1AF
:100F08003FB1411E08421BD11F2819D92368194235
:100F180016D12368019302F033FAA36803430393BD
:100F2800D8F89050C5F30725D0B2013DA84207D89C
:100F380001A9FFF7C3FF421C09F101090C34DBE7E3
:100F48006FF01502104605B0BDE8F08300ED00E033
:100F5800044B0522C3F89420BFF34F8FBFF36F8F64
:100F6800704700BF00ED00E0BFF35F8F024B002227
:100F7800C3F89420704700BF00ED00E010B5034CA3
:100F880001232278FFF7AEFF207010BDF203002086
:100F980008B50B4A00231278FFF7A4FF10F1160FCB
:100FA80007D0084A0021D2F89030C3F307239842AB
:100FB80000DB08BDC2F89800C2F8A0100130F2E7C3
:100FC800F203002000ED00E02DE9F043534B544CB0
:100FD800D3F890302568C3F307239D4285B000F20B
:100FE8009A80FFF7C1FF00200C2685421AD14D4C8C
:100FF8004D4F25706846FFF761FBDFF82081DFF869
:101008002C9106460025AE4213D12378434900208F
:10101800D1F89020C2F30722934276DBFFF798FFBE
:10102800002042E0616806FB0011FFF747FF01302E
:10103800DBE7009800EB05114FEA051CCB683B4045
:10104800B3F5000F48D00AD8B3F5001F30D0B3F578
:10105800800F36D0B3F5801F10D00135D3E7B3F138
:10106800807F42D0B3F1007FF7D150F80C30886808
:101078004A6802F085F940F4802009E050F80C3005
:1010880088684A6802F07CF940F0885040F43020C3
:10109800CDE901230390D8F890302078C3F30723D3
:1010A800013B98422AD96FF0150005B0BDE8F083DE
:1010B80050F80C3088684A6802F062F940EA090082
:1010C800E6E750F80C3088684A6802F059F940F0B1
:1010D800C06040F40030DBE750F80C3088684A689C
:1010E80002F04EF940F08270D2E750F80C30886870
:1010F8004A6802F045F940F08870C9E701A9FFF78E
:10110800DDFE237801332370A7E7C1F89830C1F8D2
:10111800A00001337CE74FF0FF30C6E700ED00E0A8
:101128001C490008F20300200000F0FF000008112D
:1011380008B5024B1B689847002008BD2402002010
:10114800034B044A1860937843F002039370704786
:10115800240200200400002008B50649064821F0B2
:101168000701C1F1005202F5003202F092F80020A6
:1011780008BD00BF0712002028020020044B1844B5
:1011880000230133994200F8012BFADC704700BFB5
:10119800340000202DE9F041104F054600264FF09D
:1011A80001086B78F4B2A34201D8BDE8F0812B782E
:1011B8001C44204600F0C0F868B1204600F0CCF886
:1011C80057F834303BB107EBC40204F01F045168F0
:1011D80008FA04F098470136E3E700BF340200201C
:1011E800034660B1B0FA80F2C2F11F02D2B20549DB
:1011F8008856054A11680B431360FFF77FBDFF222D
:10120800F5E700BF34000020003C0140024A1368A3
:1012180023EA000313607047003C0140032921D8EA
:10122800DFE801F0020C10190F4B9A6822EA00025D
:101238009A60DA6822EA0002DA6070470A4B9A6814
:101248000243F5E7084BDA680243DA609A6822EA53
:1012580000029A607047044B9A6802439A60DA6801
:101268001043D860704700BF003C014030B5B0B1B2
:10127800B0FA80F3C3F11F03DBB20B4850F83340D8
:101288008C4204D100EBC3056D68954205D044B982
:1012980040F8331000EBC3004260002030BDFF234C
:1012A800EBE76FF00F00F9E73402002060B1B0FA05
:1012B80080F3C3F11F03DBB2044A002142F8331064
:1012C80002EBC30251607047FF23F5E734020020A8
:1012D80000F00302043292000F23934043EA900087
:1012E800C3B20233054A52F82320030C02EA104025
:1012F80093FAA3F3B3FA83F3D84070470038014058
:1013080013B50C4C204602F0CCFE60B14FF480437C
:101318004422CDE90023A3681B683BB169462046F7
:10132800984702B010BD6FF01200FAE76FF057004F
:10133800F7E700BF3C4400081F2809D8012303FA37
:1013480000F0044B5B6998430CBF012000207047F4
:1013580000207047003C014000F01F021F284FF09A
:10136800010303FA02F39DBF024A002053616FF0A4
:1013780015007047003C014038B52C4B18680B88A5
:10138800C3F30B030D2B14460D464FEA900215D8F4
:10139800EBB1013B0C2B1AD8DFE803F0093C073C02
:1013A800382028191932193A09004FF4FA402060F8
:1013B8002B68B3F5805F31D2002038BD402B2BD08D
:1013C80008D823F00402302AF1D0382BEFD06FF080
:1013D8008500F2E7442B07D0A82BF7E700F0CCF8FC
:1013E8004FF4A873C00858434008E0E700F0C4F879
:1013F8004FF4A873C00858430723B0FBF3F0D6E7AF
:1014080000F0BAF840F20F13C008ECE70848CEE73E
:101418005000CCE70020CAE71046C8E7C3F31333EF
:101428000133B0FBF3F02060C6E700BF24000020C2
:1014380000127A00F8B54B4F4B4C00F0DBF83846F9
:1014480002F0ABF800F050FDA368484AC3F3031359
:101458001578D35C47FA05F520FA03F6AE4202D2B6
:10146800284600F06FFD236823F480232360236857
:1014780043F4803323603C4B1A689103FCD55A6FC0
:1014880042F001025A675A6F9207FCD59A6802F037
:101498000C02082A17D11A68940707D41A6842F070
:1014A80001021A60304A13689807FCD52E4B9A68D7
:1014B80022F003029A609A6812F00C0FFBD19A6826
:1014C80022F0F0029A60284C236823F0807323608E
:1014D80023689901FCD4264AD2F8043823F440330F
:1014E800C2F80438D2F8043823F0706343F0E0639C
:1014F800C2F8043800F044F8236843F0807323608E
:10150800194C23689A01FCD500F056F8236843F07B
:101518008063236023681B01FCD5A36823F0F003D4
:10152800A360A36823F0030343F00203A3600E4CF7
:10153800A36803F00C03082BFAD1AE4202D3284665
:1015480000F000FD0B4B1F60A36823F4E05343F445
:10155800A053A360A36823F4604343F40043A3604B
:101568000020F8BD007A030A003802404A500008FB
:1015780000300240240000200048704700127A0022
:10158800084B09495A681140084A0A435A605A6880
:10159800074922F440325A605A681140054A0A4302
:1015A8005A607047003802400080BFFF085440006E
:1015B8000080BFF0085440070B4A0C49D2F80438A1
:1015C80043F48003C2F80438D2F8043823F03F0308
:1015D80043F00803C2F80438D2F884381940044BA1
:1015E8000B43C2F884387047003002403F80FF8FB9
:1015F800C0430020064B1A6C42F080521A641B6CE0
:1016080082B003F080530193019B02B0704700BF82
:101618000038024008B5074802F043FD38B10648D3
:10162800FFF78EFD0448FEF7EFFF002008BD6FF0BE
:101638001200FBE7BC450008451600080A2838B523
:10164800074D044604D1AB680D215B6828469847CE
:10165800AB6803485B68E1B29847204638BD00BFD5
:10166800BC4500082DE9F843D0F80480D0F8109064
:10167800D8F8080017460D461E4601F0DFFEB7F5FC
:10168800001F044616D12846D8F80840FFF720FE68
:1016980084420CD1294601F0D1FE0446FFF7B6FD7D
:1016A8002046FFF703FE00212046FFF7B7FD002084
:1016B800BDE8F883B7F5800F20D0B6F1806F19D058
:1016C800B6F1C06F18D0B6F1007F1AD102261049C2
:1016D8004A462046FFF7CAFDB0B9D8F80810284690
:1016E80001F0B1FE20463146FFF798FD2046FFF78E
:1016F80077FDDCE70126EAE70326E8E76FF08500D7
:10170800D6E76FF01500D3E76FF00F00D0E700BF02
:101718001738000838B50369044658600A4D28464A
:1017280002F0BFFC60B1AB6861681B680C3123B183
:101738002846984700EAE07038BD6FF05700F9E78F
:101748006FF01200F8E700BF3C440008F7B5044604
:10175800436806691948DD680F4659688368DB687D
:101768000022019223B96FF00404204603B0F0BDB3
:1017780001AA98470028F6DB376206F110074FF0F8
:10178800FF324FF0FF33384600F0B0FD2B6823F0EE
:1017980001032B60204696F8521002F0CBF801990D
:1017A80000F084F896F8513004461BB12B6843F0DA
:1017B80001032B60384600F065FDD6E73C4400087D
:1017C80070B50446466805694FF0FF320021284687
:1017D80002F088FC336820469847002385F850308B
:1017E80085F852300122114605F1100002F07AFC0A
:1017F8001A4802F056FC68B3204600F039F83169FF
:10180800174B994220D013D8164B99421ED0164B2D
:10181800CB1A59425941890041F010012046FFF77F
:1018280095FF002803DB012385F85030002070BDA8
:101838000E4B99420CD003F5C31303F5206399426C
:101848000CBF0A210021E7E70621E5E70221E3E7CB
:101858000821E1E76FF01200E9E700BF3C44000807
:1018680040420F00A0860100801A060040E13300C4
:1018780013B5446801AA6069002102F0D1FA002872
:1018880010DB019B00221979186800F063F8002822
:1018980008DB0548616883681B680BB1984708B185
:1018A8006FF0040002B010BD3C44000810B5026996
:1018B8004368126ADB68C2F34202012A04D0022A92
:1018C80021D06FF0150010BD58681F4AB1FBF2F225
:1018D80020F03F0010435860186A013220F03F00A2
:1018E80002431A62194AB1FBF2F140F6FC72114246
:1018F80008BF0421DA6922F44F4222F0FF020A43AA
:10190800DA610020DFE758680F4AB1FBF2F220F0F5
:101918003F0010435860186A4FF49674624320F0F1
:101928003F004FF47A74B2FBF4F2013202431A62B8
:10193800074A914289BF013248F20101B1FBF2F135
:1019480041F40041D6E700BF40420F00400D0300BC
:101958007F4F12002DE9F0471E4F044600EBC106E9
:101968000025B44201D1002014E02068C30600F02D
:101978001F0911D4656845F02005C0F3481AC0F363
:101988004420192823D857F82080B8F1000F0DD12A
:101998006FF01200BDE8F087B9F1100F04D0B9F16B
:1019A800110FEAD16568E8E73025E6E7404602F01E
:1019B80078FB0028ECD04B462A460AF00F01404637
:1019C80001F03BFF002804F10804CADAE2E76FF0EF
:1019D8001500DFE7304A0008F8B50C46036941688E
:1019E8005D682379012B35D09A1E56425641B602BE
:1019F8006279022A9CBF374F37F812C0A27988BF94
:101A08004FF4005C042A28D0003B18BF01231B03B5
:101A1800E279012A0A680CBF4FF440770027A542F3
:101A2800D1681DD121F4B05131430B43D360136900
:101A380023F4405343EA0C03136143681A6853695B
:101A480023F440733B435361296802F06CFA00EABF
:101A5800E070F8BD4FF4C066CAE74FF48053D7E78B
:101A680001F4C0618E421FBFD16821F4C0613143C7
:101A7800D160426811680A6902F4405294451FBF58
:101A88000A6922F4405242EA0C020A61426811686B
:101A9800CA6802F4805293421FBFCA6822F4805277
:101AA8001343CB6043681A68536903F440739F4239
:101AB8001FBF536923F440733B43536121682B686C
:101AC800994205D002F02FFA0028C2DB23682B6068
:101AD8000020BEE7004B0008F8B543681D6803699D
:101AE8005F680B790C46012B4979A67939D102290F
:101AF8004ED9042E49D04FF4C0624FF480534FF0B2
:101B0800030C8C4541D1002B7BD0002A14BF032243
:101B18000422B24239D1E37983B1012B35D13B4B51
:101B28009D420BD0A3F54C439D4207D003F580633B
:101B38009D4203D003F54C439D4226D1EB6823F424
:101B48000053EB602146FFF747FF00281DDBEB68D9
:101B580043F40053EB6094E8030087E80300002097
:101B680015E0022B06D102291FD9042E0DD04FF4FF
:101B78008062C2E702290A461FD9042E02D123B97E
:101B88000022BAE713BB0329C3D06FF08500F8BD64
:101B98001F4A042E32F811C0F7D04FF4C062033B3D
:101BA800012BF2D94FF4805319E0194A042E32F868
:101BB80011C0EAD04FF48062F1E7154A042E32F8DA
:101BC80011C009D1002BE0D11A46EBE7033B012BEA
:101BD800DBD9D5E70022E2E7002BFBD11A46BCF59A
:101BE800805F08D0BCF5405F08D0BCF1000F86D1FB
:101BF8004FF0010C85E74FF0000C82E74FF0020C24
:101C08007FE7002A14BF0222032282E70010014066
:101C1800004B0008F7B50669446805462B48306054
:101C280002F03FFA18B96FF0120003B0F0BD306847
:101C3800E16883681B68002B42D098470028F4DBD2
:101C4800206A01AA002102F0EBF80028EDDB019BD5
:101C5800002219791868FFF77DFE0028E5DB6E6819
:101C68002B6934685F68E36823F40053E3607068A5
:101C780002F017FA0028D6D0D6E901018368DB689C
:101C880003B1984704F10C0353E8003F43F00C03F9
:101C980004F10C0141E80032002AF3D13946284604
:101CA800FFF79AFE00280EDB337D1BB1636943F012
:101CB80008036361E36843F40053E3600020B4E77A
:101CC8006FF05700B1E76FF01500AEE73C4400082D
:101CD80010B54FF0E0230F499C691A6908689B69A1
:101CE8000D4902F4803234B993B903464AB90A68F7
:101CF8001044C01A10BD002B08BF03460AB9A342FE
:101D0800F5D90A6802440A604FF0E0221269EEE74A
:101D18000446F3E7C0030020BC0300200A4B10224E
:101D280083F82320094B44F2A0121A60084B0020C4
:101D380018604FF0E02344F29F125A6198611A69C3
:101D480042F007021A61704700ED00E0C00300206E
:101D5800BC030020684620F007018D4619B5FFF73F
:101D6800B7FF114B1149D3E900420868001942F145
:101D78000002C3E900020E4A00230B60D2E90041C9
:101D880044F2A013001BB0FBF3F043431B1941F1CD
:101D98000001C2E9003100F061FFFEF727FDBDE850
:101DA80019408546704700BF68000020BC0300202A
:101DB800600000202DE9F041DFF8DC8099B1421C79
:101DC8000BD14FF0E022136923F0010313614FF0A8
:101DD8007F43C8F80030BDE8F081D8F800600128DA
:101DE80007DC00270BE0431CD8F80060F7D140F26D
:101DF800E53040F2E6339842A8BF1846471EEFF395
:101E08001185102383F31288BFF36F8FFFF760FFEC
:101E1800224C4FF0E0239969D4E90023801843F15C
:101E28000003C4E900031E4B00221A601D4B1A6808
:101E3800831A2ED444F2A01C0CFB073303F583430A
:101E48001F33B3FBFCF7131A0CFB073340F21A429B
:101E5800934238BF1346144A934228BF13464FF0A3
:101E6800E022C8F80030013B906953610023936178
:101E78008142A1EB0003D4E9001238BF9B195B181B
:101E880042F10002C4E9003285F31188BFF36F8F75
:101E9800A1E740F21A43E2E7C003002068000020EF
:101EA800BC030020600000202094FF0038B5EFF349
:101EB8001185102383F31288BFF36F8F084B1C68BA
:101EC800084B1B68E41AFFF703FF85F31188BFF37B
:101ED8006F8F44F2A0132044B0FBF3F038BD00BF6D
:101EE800680000206000002008B513498B6803F0E3
:101EF8000C03042B1CD0082B1CD14A684B6849687A
:101F080013F4800314BF0D480D48C1F3881118BF9E
:101F1800002302F03F02A1FB0001FEF731F9064B56
:101F28005B68C3F3014301335B00B0FBF3F008BD0A
:101F38000248FCE70248FAE70038024000127A003B
:101F48000024F40000285ED0304A136813F480435C
:101F580038D02F4B984215D913685B0449D505230F
:101F68002C490A6822F007021A430A600A6802F03C
:101F7800070293421CBF0A6802F00702981A18BFAA
:101F880001207047244B984204D91368580436D569
:101F98000423E5E7214B984204D91368590430D546
:101FA8000323DDE71E4B984207D81E4B984213685F
:101FB8001DD95A041FD50123D2E713685B041CD529
:101FC8000223CDE7126812F48042C9D1124988422F
:101FD80015D81249884214D811498842F0D81149B5
:101FE8008842BDD9012A134638BF0123B8E7002328
:101FF800B6E70522F6E70122F4E70222F2E7042217
:10200800F0E70322EEE70120704700BF00700040B0
:1020180080D1F008003C0240000E2707804A5D0589
:102028000087930380C3C90138B5EFF311851023E6
:1020380083F31288BFF36F8F064B9C6802F044F855
:1020480085F31188BFF36F8F2046BDE83840FEF74F
:10205800FDBD00BFC403002038B50A4B53F820402B
:10206800013053F82050A54200D838BD606830B11F
:10207800037FDB0701D401F0FCFF0834F3E7236892
:102088009847FAE7E84A000870B52A4B2A4C2B4DC6
:10209800012286B003201A70FFF7DEFF00F056FE1B
:1020A8000420FFF7D9FF2646AE4204F1300410D3CE
:1020B80000F0F6FA204C224EAC4226D300F004FB86
:1020C800FEF7C8F91F4A137B23F00103137306B008
:1020D80070BD54F80C3C059354F8103C049354F824
:1020E800143C039354F8183C029354F81C3C019395
:1020F80054F8203C009354E90A2354E90C0100F0F9
:1021080055F954F8303C5E65CDE7D4E90A23B3F1BC
:10211800FF3F08BFB2F1FF3F05D052EA0301206834
:1021280003D100F08DFB3034C6E73146183000F09B
:1021380005FDF8E7F30300208C4800088C480008E8
:10214800D1410008F000002070B5002386B00122BC
:10215800CDE90423134E144D01930F22CDE9023229
:102168001249142303FB005506EBC01604464FF42E
:10217800C07000FB04110E4B00954FF4A07230465E
:1021880000F014F9737B0B4AEE6023F004037373B9
:102198004FF4046304FB033313442C746B6006B0E0
:1021A80070BD00BF70000020C4030020400C002058
:1021B800D740000800040020BFB50020FFF74CFFFF
:1021C800284B83F30888284C284F636943F400732D
:1021D80063610025F02384F82230E577257665765B
:1021E800A57684F82050636A43F4E0236362FEF71F
:1021F800FDFCFEF723FE4FF0FF33A362E362FEF718
:10220800E3FEFEF73FFE1A481A4C00F01BF9FEF7F2
:102218003DFA0120FFF720FF0220FFF71DFF00F025
:1022280087FA154B15495C61154B05930123CDE9D8
:1022380003534FF480623B46CDE901550095204693
:1022480000F0B4F8627B064622F00402204662736E
:1022580001F08EFF2846FFF777FF3A4631462046C1
:10226800FEF7CEFD400C002000ED00E091200008B4
:1022780070010020F0000020C4030020C00D0020E1
:102288005A50000870B5EFF31186102383F31288B3
:10229800BFF36F8F0468A0421AD0CCB1D4E90032E2
:1022A80013605A60637B002523F002036373C4E95B
:1022B8000055A56004F1180001F0C0FF2046A5678D
:1022C80001F056FF31460848BDE8704000F0C2B939
:1022D800D0E902329A4218BF0133836086F311882D
:1022E800BFF36F8F70BD00BFF403002013B5EFF389
:1022F8001181102484F31288BFF36F8F846844B16E
:10230800013C846081F31188BFF36F8F002002B015
:1023180010BD52EA030406D181F31188BFF36F8F11
:102328006FF00F00F3E7CDE900230246014800F003
:102338006FF9ECE7F40300202DE9F0410546EFF3CF
:102348001187102383F31288BFF36F8F00231E4673
:102358006FF00A082C68A54216D0ACB1D4E9003257
:1023680013605A60637BA66023F002036373C4E9B9
:10237800006604F1180001F061FFC4F87880204677
:1023880001F0F6FE0123E5E70022AA602BB13946E9
:102398000548BDE8F04100F05DB987F31188BFF347
:1023A8006F8FBDE8F08100BFF40300202DE9F043F2
:1023B800073285B022F007020E461F4610990173B6
:1023C80000F158037F32C0E916330446002322F097
:1023D8003F020421836041733F2A0F98A073C4E928
:1023E8000633E37306F14009A2F1400805D883F3E8
:1023F8001188BFF36F8F084602DFB51829462046BB
:10240800FEF7D4F907300E9B20F00700A066C4E958
:10241800189802930D9B01932D1A0C9B00932A4642
:102428003B4631462046FEF7B9FC00236365044B62
:102438009B6803B1DB6EE366284605B0BDE8F08310
:10244800C403002040F2011383810023C0E918333C
:10245800C366014B98607047C4030020094A93681B
:102468006FF00A019967084958674B6843F0805331
:102478004B60002383F31188BFF36F8F9368986FC5
:10248800704700BFC403002000ED00E070B590F96C
:102498000D20437B002A36DBD90634D11B4C63F070
:1024A8007F032246437352F8183FE169934207D1EC
:1024B800C0E900210860E06111E09942F8D01B688A
:1024C800002BF5D090F90E5093F90E60B542F4D078
:1024D800AE42F2DD5968C0E9003108605860A5696C
:1024E800954200D005B9E568A3685A7BD20604D1A5
:1024F800DA897F2A01D9AA6932B1AB4202D02846CB
:1025080000F096FA656170BD6361FCE7C4030020C2
:1025180038B590F90D20437B002A014604DA03F010
:102528007F03437301F0EAFD0D4D2A46AB6852F86C
:10253800184F944200D004B9EC688B4207D05A7BFC
:10254800D20604D1DA897F2A01D9A2692AB1A34225
:1025580002D0204600F06CFA23466B6138BD00BFFC
:10256800C4030020B3F1FF3F08BFB2F1FF3F03D01F
:102578000249183000F0E2BA704700BFD1410008A4
:1025880070B590F90D20437B002A014604DA03F068
:102598007F03437301F0B2FD4B7B1C4C63F07F0358
:1025A80022464B7352F8183FE069934207D1C1E9BC
:1025B80000200160E16111E09842F8D01B68002B0F
:1025C800F5D091F90E5093F90E60B542F4D0AE42B1
:1025D800F2DD5868C1E9003001605960A569A36857
:1025E800954200D005B9E5688B4207D05A7BD206E0
:1025F80004D1DA897F2A01D9AA692AB1AB4202D06B
:10260800284600F015FA2B46636170BDC40300200C
:10261800F8B50E4B0C4611460D4A98681060DDE976
:102628000667EFF31182102282F31288BFF36F8FCF
:102638009D68284601F074FD284632463B46FFF760
:1026480091FF2046BDE8F840FFF708BFC40300200B
:10265800E403002049B9EFF3058030B9054B5A6906
:102668009B689A4201D0FFF7F9BE81F31188BFF346
:102678006F8F7047C4030020034648B9EFF3058203
:1026880032B9064A51699268914201D0FFF7E6BE15
:1026980083F31188BFF36F8F704700BFC403002016
:1026A800EFF31181102383F31288BFF36F8F054B6B
:1026B8009A68D37B013BD37381F31188BFF36F8F83
:1026C800704700BFC403002070B5EFF311861023D4
:1026D80083F31288BFF36F8F144DAB68DA7B013236
:1026E800DA732A4652F8184F944200D004B9EC68BD
:1026F8005A7BD20604D1DA897F2A01D9A2692AB184
:10270800A34202D0204600F093F923466B6186F37A
:102718001188BFF36F8FEFF31180102383F31288B2
:10272800BFF36F8FBDE87040FFF7A6BFC40300205A
:10273800024B03F11802C3E906227047C4030020C4
:1027480070B5EFF31186102383F31288BFF36F8FF0
:102758001B4CA168E0690B68814214BF1A4600222D
:1027680049680B605960A368E1692AB9154AC3E949
:1027780000210B60E3610CE093F90E0092F90E5012
:10278800A84218D0854216DD5168C3E900210B60C4
:102798005360A5690B4B9D4200D005B9E568A36855
:1027A8009D4202D0284600F043F965613046BDE8F5
:1027B8007040FFF753BE8A42D8D01268D5E700BFF1
:1027C800C4030020DC030020F8B550EA01030646E4
:1027D8000C4603D1FFF7B4FF0020F8BDEFF31187D3
:1027E800102383F31288BFF36F8F124D124BA86822
:1027F8001860FFF78DFEA868104923463246183046
:1028080000F09CF9AA68537B43F004035373044611
:102818003846FFF723FEAB68D3E90A23B3F1004F2C
:1028280008BF002AD8D101F031FD201A20EAE07053
:10283800D3E700BFC4030020E4030020D14100080F
:1028480038B50446EFF31185102383F31288BFF3DC
:102858006F8F437B5B070FD5183001F0EFFC637B6C
:1028680023F0040320466373FFF710FE294605484A
:10287800BDE83840FFF7EEBE85F31188BFF36F8FD0
:1028880038BD00BFF4030020014B9868704700BFB3
:10289800C40300202DE9F8430446077BEFF31185B4
:1028A800102383F31288BFF36F8F437B190705D575
:1028B80085F31188BFF36F8FBDE8F883D90943F01A
:1028C80008025DD14273A36813B1204601F01EFCD3
:1028D80004F1180001F0B2FCA66D04F15808B045E7
:1028E80011D04FF0000976B1304601F00FFC06F127
:1028F800180001F0A3FCC6F878903046FFF7C6FD33
:10290800A66DB045EFD1DFF8C080D8F808309C42FA
:102918003ED1EFF30589B9F1000918BF4FF001095D
:10292800D8F81860294A964200D00EB9D8F80C6039
:10293800B34202D0304600F07BF82046C8F8146055
:1029480000F007FDB9F1000F02D02148FFF77AFD2A
:10295800D8F808309C4231D1EFF3058373BB227B52
:10296800D20718D42846FFF779FDFB07A4D5002322
:1029780083F31188BFF36F8F0423184602DF9BE7A8
:1029880003F07F0343F00803437301F0B7FB9AE7B2
:102998004FF00009C4E785F31188BFF36F8F83F305
:1029A8001188BFF36F8F0423184602DFEFF31180FD
:1029B800102383F31288BFF36F8FD4E785F3118850
:1029C800BFF36F8FD1E700BFC4030020DC030020F2
:1029D80070010020044BC01A044BC0105843044B2C
:1029E80001221A54704700BFF0010020ABAAAAAA1E
:1029F800F4030020C3897F2B12D80A4B1B6863B1EC
:102A0800094B90F90E201B689A4209DB437BDB06D1
:102A180006D1064BC31A18BF012303F00100704703
:102A28000023FAE728000020E803002070000020B7
:102A380070B50E4B0E4C1E7C06EB460304EBC3042C
:102A48000546204601F0FAFB0A4B002228469A5513
:102A5800FFF7D0FF48B1084B08491A68013A2046E9
:102A6800D317BDE8704000F069B870BDC4030020FA
:102A7800F0010020F403002028000020DD290008D0
:102A880038B5EFF31185102383F31288BFF36F8FE6
:102A9800104B114A9C681068A04206D1FFF7C8FF86
:102AA80085F31188BFF36F8F38BD00211B7C11603F
:102AB8000A4AD35C002BF3D02046FFF79BFF00287F
:102AC800EED0637BDB0602D12046FFF759FD204696
:102AD800E4E700BFC4030020E4030020F40300205F
:102AE800024B1868984208BF002070472C0000204D
:102AF800034B1B680BB9FFF7D9B90020704700BF1B
:102B0800EC03002030B570B10B4B5B6898420AD0DB
:102B1800036843B1D3E90421D0E90445121941EB14
:102B28000501C3E90421D0E9003213605A6000238B
:102B3800C0E9003330BD00BF2C000020B3F1FF3FD7
:102B480008BFB2F1FF3F2DE9F84F044699461546F4
:102B58001F467AD08160EFF31188102383F312881F
:102B6800BFF36F8FB9F1000FDFF8E4A020DBFFF7A8
:102B7800BFFFDAE90027013549F100092D1849EBB3
:102B8800E073C4E90453AD18064643EB07074FF05A
:102B98000109FFF7A5FFDFF8BCE0DEF804A0034653
:102BA800EBB9C4E900EACAF80040CEF8044028E0CE
:102BB800DAE900126FF001035B1A4FF0FF3161EBA5
:102BC80002025B1B62EB0902012B72F10001BCBF20
:102BD80001230022C0E904324FF00009D9E7D3E904
:102BE800041CD4E904208A4270EB0C0B24DA891AFD
:102BF8005A686CEB0000C3E90410C4E900321460A1
:102C08005C60FFF76DFF84420ED1134B1B685BB904
:102C1800B9F1000F02D1FFF76BFF0646304601F00D
:102C2800F6FA0021FFF7C6F888F31188BFF36F8F13
:102C380028463946BDE8F88F521A60EB0C009A45D1
:102C4800C4E90420ADD01B68AAE700252F46EFE7AA
:102C5800080200202C000020EC0300202DE9F0479A
:102C6800EFF31185102383F31288BFF36F8FDFF81A
:102C7800A490DFF8A480C9F80000FFF731FF002610
:102C88000027D9F80030D8E900ECD91750B1D0E9BD
:102C98000442A34271EB020A1CDAE41A62EB010255
:102CA800C0E9044213EB0E034FF000044CEB0101A2
:102CB8002046C8E90031C9F8004001F0A8FA2146C9
:102CC800FFF778F885F31188BFF36F8FBDE8F047F9
:102CD800FFF7D6BE14EB0E024CEBE473C0E90467B1
:102CE800C8E90023FFF70EFF85F31188BFF36F8F44
:102CF80083689847EFF31185102383F31288BFF395
:102D08006F8FD9F800301B1BC9F80030FFF7E8FEB9
:102D1800B7E700BFEC0300200802002010B5EFF36E
:102D28001184102383F31288BFF36F8FFFF7E0FE3F
:102D3800054A0346D2E90001181841EBE37184F310
:102D48001188BFF36F8F10BD08020020014800F002
:102D5800DFBA00BF5F5000082DE9F04F8DB043681F
:102D68000293837815469A07804640F10D81002426
:102D78000E78002E00F00A81252E0BD04B1C0393F1
:102D88000134029B4146304698470028C0F2F6803D
:102D98000399EDE74E788B1C252E0393F0D000277E
:102DA800B946BB46BBF11F0F38D8A6F12003102B3C
:102DB8000AD8DFE803F02A090930090909210909B5
:102DC8000928092D09091F00A6F13003092B33D959
:102DD8002A2E37D11BF0400F55F8043B40F0828073
:102DE800002BA7BF4BF0200B9946C3F100094BF00D
:102DF800280B01E04BF0010B039B13F8016B0393C5
:102E0800002ECFD130E04BF0020B4BF0040BF3E770
:102E18004BF0080BF0E74BF0100BEDE7BBF17F0F21
:102E280019D8A6F13003092BD2D81BF0400F03D0D4
:102E38000A2101FB0737DFE70A2101FB09394BF0BB
:102E4800200BD9E72E2E06D11BF0400F40F09E80B4
:102E58004BF0400BD0E76C2E31D02BD8682E36D0F3
:102E68006A2E3CD04C2E3AD0002F46F02003B8BF33
:102E78002BF04002A3F16501BCBF1FFA82FB0027BB
:102E8800022901D9612B2FD1073525F00705DFF875
:102E9800ACA2083507271BF0080F66D00AEB070B12
:102EA80056465E4563D1A4EB0A0A06EB0A02A9EB73
:102EB80007096FE1742E9FD07A2E9DD0D4E71BF0BE
:102EC800800F18BF4BF4007B4BF0800B94E71BF48A
:102ED800807F18BF4BF4007B4BF4807B8CE74BF46E
:102EE800207B89E71F4687E7A6F16301122900F2D4
:102EF800F080DFE811F013004F00EE00EE00EE0066
:102F0800EE004F00EE00EE00EE00EE00EE00FE00D8
:102F1800E900EE00EE001B00EE00AF0055F8043BA0
:102F28008DF8183001270DF1180AB4E755F804ABED
:102F3800834BBAF1000F08BF9A461BF0400F14BF2D
:102F480039464FF0FF31504601F0BAF90746A2E77B
:102F5800029B41462020984700280FDB013EB742DC
:102F6800F6D34C44A41BB14698E74E46F7E716F84B
:102F7800010B029B41469847002892DA98F80230E4
:102F880043F0040388F802304FF0FF3420460DB0B8
:102F9800BDE8F08F1BF0800F34D01BF4007F2CD0DD
:102FA800073525F00705AA4669685AF8080B2BF07B
:102FB80010050029ADB237DA404261EB410145F412
:102FC80080650DF1180B0A235A4601F085F9A0EB2C
:102FD8000B0301936B0662D5019B25F001019F420B
:102FE80089B240F3A180002E00F0998015F01002FC
:102FF80040F09C80BB460D4623E0AA465AF8040BD5
:10300800C117D4E7AA461BF4807F5AF8041B01D1E4
:103018000846F5E71BF4007F15BF48B208B241F334
:10302800C01141F3C031C2E750EA0103C9D11BF016
:10303800400FC6D0002FC4D12BF0110295B2BB4669
:10304800019740F2064115EA01021CBF0BF1010B82
:1030580000222CE02BF010021FFA82FB0A231BF03F
:10306800800C49D01BF400711DBF073525F00705FA
:10307800AA46AA461ABF5AF8080B69685AF8040BF8
:1030880050EA010545D12BF016051BF0400FADB2F3
:1030980042D0002F40D12BF0170295B2019715F0BE
:1030A800100248D0019B002E42D103F1010B2907E1
:1030B8005AD4EB0706D5D9456FDD0199A9EB0B0367
:1030C8005F18CB465B4649E04BF0100B102378267F
:1030D800C5E7782B04D1C6F1780343F01003BEE7A7
:1030E800029B4146252098470028FFF647AF023447
:1030F80047E608230026B2E7AA461BF480715AF86F
:10310800040BBDD01BF400711ABFC0B2614680B277
:10311800B6E72BF0060295B20DF1180B54E725F02F
:103128001105ADB2BB468CE70D46B8E73B460D46E8
:1031380003F1020BBBE7DDF804B082E78E5000080C
:1031480087500008CDE904324146029B2020984769
:103158000028FFF613AF049B059A01339945F1DC6B
:10316800A4EB0B01CC189B460AB3029B41463020C6
:1031780098470028FFF602AF8EB901342744019B17
:10318800391B994224DC1D465DBB019AA9EB0B094A
:10319800224455461446914435E0019F92E7023493
:1031A80041463046029B98470028E7DAE6E640F2B7
:1031B80006410D42E2D015F0020F14BF2B2020204B
:1031C80015F4806F04F10104414618BF2D20E9E78A
:1031D800029B414630209847002804F10104CEDACA
:1031E800CCE606AB013D4146585D029B9847002856
:1031F800CADAC3E6029B414620209847002804F11A
:103208000104FFF6BBAEA9EB0403002BF2DCBFE51B
:103218007047F0B40C2707FB0214866814F8045CA6
:1032280045F0020504F8045CB468A446F0BC6047A5
:103238004FF47A70002100F0CBBF00EBC10040884A
:1032480040087047F8B50346FFF7F7FFB0FA80F07B
:10325800C0F11F0003EB800CCA00DCF81060171DDA
:103268000C4606328DB256B9012101FA00F0D96830
:103278000143D960CCF81040DD539D52F8BDF100F0
:103288000431585AD85303EBC0009E52C5805D5292
:10329800F4E7043A2DE9F041CC1D114424F0070469
:1032A80021F007010E1BF708B7FA87F2C2F12405CF
:1032B800AD004FF000080735C2F12002ED080460A8
:1032C8004146A760C4F80C80920004F1100000F099
:1032D800EFFF6B0043F00103638004EBC5027B1B27
:1032E8005900A4F800805180A21924F83550A2F89A
:1032F8000280A35304EBC70329465A8842F001020F
:103308005A802046BDE8F041FFF79CBF0020704777
:103318000FB407B504A951F8040B0191FDF77AF928
:1033280003B05DF804EB04B07047704700F0C0BF0D
:1033380000F0B0BF01460068FDF704BA08B5FDF714
:1033480031FABDE80840FDF751BA00210120FDF728
:10335800F9B96FF08500704761B662B680F31188DD
:10336800BFF36F8F704772B6002383F31188BFF3E2
:103378006F8FBFF34F8F30BF62B6BFF36F8F704749
:10338800202809D9B0F1004F08D80138B0FA80F0E8
:10339800C0F11F0040007047082070473E2070476A
:1033A80008B5FDF7C5FE002008BD08B506220121B5
:1033B8000020FDF7E3FE002211460620FDF7ACFCD5
:1033C800012108460722FDF7D9FE002211460720F1
:1033D800FDF7A2FC082201210220FDF7CFFE002202
:1033E80011460820FDF798FC092201210320FDF76A
:1033F800C5FE002211460920FDF78EFC0A22012194
:103408000420FDF7BBFE002211460A20FDF784FCCC
:10341800052108461722FDF7B1FE002211461720A4
:10342800FDF77AFC282206210A20FDF7A7FE0022D4
:1034380011462820FDF770FC002008BD01F01F018F
:1034480001208840704700F00302043292000F23E5
:10345800934043EA900010B5C3B29B0003F1804348
:1034680003F59C33020C9C6892FAA2F2B2FA82F23B
:1034780024EA104091400143996010BD0B88C3F3C2
:103488000B0303F57D62C2F30B02782A82B014D8CD
:1034980003F1804303F50E3348681A6802431A6043
:1034A8000B88C3F30B0303F1804303F50E330020AD
:1034B8001B680193019B02B070476FF08500FAE723
:1034C8000B88C3F30B0303F57D62C2F30B02782A62
:1034D8009FBF03F1804303F50E3349681A689DBF07
:1034E8008A4300201A606FF0850070470D2809D8BC
:1034F80043F2EA43C34013F0010F14BF00206FF0FA
:10350800850070476FF08500704738B50888C0F3AC
:103518000B00FFF7EBFF002822DB4868FF281ED0CE
:1035280082B2C0F3415502F1804202F50E320135F4
:103538000123AB401468C0F30440013B834024EAF4
:103548000303136049688BB203F1804303F50E331C
:103558000A0E1868C1F304418A4002431A60002029
:1035680038BD0888C0F30B0008B500F57D63C3F3C8
:103578000B03782B0AD800F1804000F50E304B6819
:103588000268934314BF0120022008BDFFF7AEFF75
:10359800002814BF01200220F7E7704743685B68E2
:1035A8001B690B600020704743685B68586942409C
:1035B8000A4042405A610020704743685B68002017
:1035C8009961704743685B680904996100207047F6
:1035D80043685B685A69514059610020704710B5CB
:1035E80003699868F8B1884219D1DC68086898605E
:1035F800A14200D1D860002008602AB19A680A6008
:10360800DA68996002B9D960002010E0814206D1D9
:1036180008682060D8688142EDD1DC60EBE7044699
:1036280000680028F2D1002AE8D16FF0150010BD1B
:10363800F0B544680120676888401E46C2F38013CD
:1036480027EA00078B403B43636090FAA0F7B7FA7C
:1036580087F7D4F808C04FF0030E7F000EFA07F77B
:103668002CEA070C90FAA0F7B7FA87F7C2F3C11350
:103678007F00BB4043EA0C03A36090FAA0F3B3FABF
:1036880083F3E7685B000EFA03F327EA030790FA6F
:10369800A0F3B3FA83F302F030055B00C2F34122D2
:1036A8009A403A43202DE26016D107292BD890FA88
:1036B800A0F3226A2BB3B3FA83F39B000F2101FA1C
:1036C80003F322EA030290FAA0F3B3FA83F39B0010
:1036D80006FA03F31343236290FAA0F3B3FA83F3D1
:1036E800226890FAA0F05B000321B0FA80F02D095F
:1036F80001FA03F3400022EA030385401D432560D5
:10370800F0BD2B46D9E7030A616A93FAA3F282B1A6
:10371800B2FA82F292000F2793FAA3F3B3FA83F373
:1037280007FA02F29B0021EA02029E4016436662F3
:10373800D2E72A46EEE712F4003CF8B505460C46F7
:1037480013461DD0960714D550075DD55022D906CB
:1037580011D542F4007203F4C061B1F5806F42D014
:10376800B1F5C06F19D0B1F5007F18D142F08002D1
:1037780015E01022EBE79F06EDD542F48062EAE7F8
:10378800D60305D5D00605D4C2F340129202E2E76B
:103798003022E0E74FF40072DDE742F4C07213F420
:1037A80040372E6908D0306920FA04F1C9075FBF95
:1037B8000121A14001433161BCF1000F06D018037B
:1037C80014D5696801234968A3408B6168680023A0
:1037D8002146FFF72DFF27B9336923FA04F2D207F0
:1037E8000CD40020F8BD42F48072D8E75903EDD517
:1037F8000121A1402846FFF7E5FEE7E70122A240A4
:1038080023EA02033361ECE76FF08500EAE770B55D
:103818000B468968054611B15E680C6801B970BD30
:103828008A682A4002D04B68304698471CB1236802
:1038380021461C46F2E72346FAE7F8B51F46044638
:1038480040680E461546FFF7F3FE112F07D10121F8
:103858002B0501FA06F104D563685B6899610020BD
:10386800F8BD2046FFF7AEFEF9E7036993F850204C
:103878001AB11B6A0B60002070476FF00400704794
:1038880008B5002211461F20FDF746FA1F20FDF754
:1038980035FA002220201146FDF73EFABDE808401F
:1038A8002020FDF72BBA2DE9F74398460B7A0669D5
:1038B80043F0040315460B7207460C460B460122DB
:1038C800AA420AD906F110094FF0FF324FF0FF3330
:1038D8004846FEF70BFD002620E00AD2197A187D2B
:1038E80081EA000C1CF0010F01D040071FD58907A1
:1038F8001DD401320C33D2B2E2E7012D14BF04F11A
:1039080014030023CDE90038384694E80E0000F08F
:103918004DFA061E04DB013D0C34EDB2002DECD14E
:103928004846FEF7AFFC304603B0BDE8F0836FF0C1
:103938001506F8E742680369D26883F8521019B986
:10394800136823F01A031360704700F02CB900F0D5
:10395800F8B943680169DB685A6822F4C0625A60A2
:103968005A6822F4C0625A605A6822F400725A6097
:103978005A6822F480625A6091F851201AB95A683C
:1039880022F480725A607047F8B54368DC6823688F
:1039980023F001032360FFF7DCFF26686568A3684E
:1039A800E068E169226A276847F4004727602768CA
:1039B8009BB227F40047B6B2ADB243F4804380B25D
:1039C80089B292B2276026606560A360E060E16119
:1039D8002262F8BD38B543680569DC68FFF7B9FFAE
:1039E80095F851301BB9236823F00103236038BDD3
:1039F800034600695B68826CDB688AB1013A8264BD
:103A08001AB95A6822F480625A60C26C196912782D
:103A180021F0FF010A431A61C36C0133C364704784
:103A2800C26A910742BF1A6842F400721A605A6962
:103A3800520748BF1B69FEF725BC70B50369D3E977
:103A48000D56DC6B024626B10021ADB999631CB155
:103A58000AE03CB95DB15C631046FFF7BBFF6FF04D
:103A6800040008E005B15E630021D963F4E709B9F1
:103A7800FFF7B0FF002070BD5963E7E7C3685A68D5
:103A880042F480725A605A6842F400725A605A6866
:103A980042F480625A6070472DE9F0411F4643683E
:103AA8000469DD680E4690462046FEF745FC7368BB
:103AB800A3643368E364337AE36287F00107002381
:103AC800C4E90C73C4E90E33A3626664A4F82480C5
:103AD8002B6843F001032B602B6823F400632B60F1
:103AE8002B6843F480632B60337A59070BD52B6816
:103AF8009A0541BF23F400731B041B0C2B602B6831
:103B080043F480732B60BDE8F081034600695B686D
:103B1800826CDB68002A3DD0022A21D0032A2BD0F0
:103B2800012A2ED11A6822F480621A601A6822F4D7
:103B380000621A60C26A910742BF1A6842F40072B2
:103B48001A605A6822F480625A60826C013A826470
:103B5800C26C1B691370C36C0133C364FEF792BB5C
:103B6800426C5268022A1DD81A6822F480621A60D0
:103B78001A6842F400621A605A6822F480625A6035
:103B88007047013A8264C26C1B691370C36C0133BD
:103B9800C3647047C26A920742BF1A6842F400724F
:103BA8001A60DBE7704710B443680269DB685C6938
:103BB800E40785B0014630D5106A918C10F00100F9
:103BC80013D0946AC91101F0060154B941F0F0010B
:103BD80090621A6922F0FF020A431A6105B010BC0C
:103BE800704741F0F1010020F2E7106B490020B165
:103BF8001A69C9B222F0FF02EEE7186941F0010123
:103C080020F0FF00C9B201431961926C022AE5D184
:103C18001A6842F400621A60E0E75C69240705D577
:103C2800196992F8242021F0FF01D5E75C69A407FF
:103C380039D5106A116BC00715D5A9B9906AD0B1EA
:103C480091625A690192019A9A690192019A1A68D5
:103C5800910541BF22F400721204120C1A601A680E
:103C680042F48072D7E731B15A690292029A9B698D
:103C78000293029BB2E7926C012A0AD11A6822F4D5
:103C880080621A605A690392039A9B690393039BA3
:103C9800A4E7022AF6D11A6822F480621A601A6828
:103CA80042F40062EDE75C6964073AD5146B24B10D
:103CB800084605B010BCFFF79BBE916C022905D0E1
:103CC800032920D005B010BCFFF71FBFD16A8C07AD
:103CD80042BF196841F400711960916C013991640F
:103CE800D16C18690870D06C411CD164916C013991
:103CF80091641B694370D36C0133D364104605B0DB
:103D080010BCFEF7BFBA196821F480611960916C84
:103D180001399164D16C1B690B70D36C0133D36486
:103D28005CE75869000602D5106B0028C0D15B69B2
:103D38005B067FF553AF136B002B7FF44FAF08463C
:103D4800C0E708B543680269DB680146586910F4A2
:103D5800806F58690ED020F480605861186840F46C
:103D680000701860012393630869FEF78BFA6FF0FF
:103D7800040008BD10F4007F586905D020F40070D5
:103D8800586101235363EFE710F4807F586905D029
:103D980020F4807058610123D363E5E710F40060D4
:103DA800E7D05A6922F400625A61DDE72DE9FF4144
:103DB80001AD85E80E009DF80C300A9EBDF82C2058
:103DC800076913F00103044614D12946FFF764FE7E
:103DD8006068FFF753FE41F2883200233846FEF749
:103DE80085FAC0B12046FFF7CFFD6FF0040004B09C
:103DF800BDE8F08143682946D3F80C800123FFF71A
:103E08004BFE6068FFF73AFED8F8043043F4C0630D
:103E1800C8F80430DFE731462046FFF70EFEE6E734
:103E280030B5036813600579046804EBC504A34240
:103E380002D36FF0010030BD5C798C4201D00833A9
:103E4800F0E70020F7E74368C1F34B101B6801F067
:103E58001F01C05801238B40034214BF01230023D4
:103E680013700020704710B54368C1F34B101A68EF
:103E780001F01F01845801238B4023438350002005
:103E880010BD10B54368C1F34B14186801F01F0149
:103E9800235801228A4023EA02032350002010BD40
:103EA80038B504460D46FFF7DEFF29462046FFF7E2
:103EB800E8FF002038BD82B003680193019B436886
:103EC8000193019B02B0704708B5436818680268FF
:103ED8000368D9070368C2F3C00248BF42F0020270
:103EE8009B07036848BF42F004025907036848BFAC
:103EF80042F02002DB0542BF6FF4807342F00802F3
:103F08000360D10701D5FFF7D6FF930701D5FFF767
:103F1800D2FF510701D5FFF7CEFF930601D5FFF772
:103F2800CAFF104608BD37B5436802691C680D46CC
:103F380019B96FF0150003B030BD1068D9688368EF
:103F4800DB6803B301AA98470028F4DBE36801990A
:103F580023F400431920E360AA00AB0FA1FB000182
:103F6800FCF70EF96422B0FBF2F102FB11031B010E
:103F78003233B3FBF2F303EB01130F2BD9D99BB206
:103F8800A3600020D7E76FF05700D4E710B5436867
:103F98001B6810201A681206FCD5EFF3118280F313
:103FA8001288BFF36F8F1C68240604D482F311882B
:103FB800BFF36F8FEEE7596082F31188BFF36F8FFD
:103FC80010BD08B54368186803681A0701D5FFF7DC
:103FD80072FF03689B0643BF43680B7000204FF0D5
:103FE800FF3008BD03695B681B680B6043681B688A
:103FF800DB6803F4C063B3F5806F2FD0A3F5C06C02
:10400800DCF1000343EB0C030B7143681B681B696D
:1040180003F44053B3F5805F22D0B3F5405F21D05D
:10402800002B0CBF012303234B7143681B68DA681C
:10403800DB68D20403F4C06316D5002B14BF032336
:1040480004238B7143681B685B6903F44073A3F511
:10405800407253425341CB71002070470223D3E78B
:104068000023E1E70223DFE7002B14BF0223032329
:10407800E7E710B5436904463BB90020E268537886
:1040880043F001035370404210BD98470028F4D014
:104098000028B8BF4042E368FF28A8BFFF20187077
:1040A800ECE740B1C368587810F001001EBF1878DB
:1040B800B0FA80F040097047EFF31183102383F3BF
:1040C8001288BFF36F8FFEE708B5FFF7F5FF08B555
:1040D8001024EFF3118384F31288BFF36F8FFFF777
:1040E80042F9F6E73AB18A4205D3C0E90212C0E9BB
:1040F8000000002070476FF015007047D0E90032CB
:1041080013605A600023C0E90033704708B5FFF711
:10411800F5FF437B23F0020343730023836008BD4C
:1041280038B504460D46FEF7F3F9637B43F0020306
:104138006373E5B1A5602B689D4209D16B68C4E93A
:1041480000531C606C6012E06A689A42F6D01B68E3
:10415800002BF3D094F90E2093F90E108A42F3D075
:104168009142F1DD5A68C4E9003214605C6038BDE0
:1041780010B5EFF31184102383F31288BFF36F8F08
:10418800FEF784F984F31188BFF36F8F10BD10B563
:104198000146EFF31184102383F31288BFF36F8F66
:1041A800437B13F0280F0AD183680BB1FFF7AEFFEA
:1041B8004B7B23F004034B730846FEF767F984F33F
:1041C8001188BFF36F8F10BD01211838FFF7DFBFCB
:1041D80038B504460D46FEF7F7FAB5F1FF3F08BFBC
:1041E800B4F1FF3F0346204610D013F109004FEA0F
:1041F800E37141F100010A220023FBF7C1FFB0F18E
:10420800004F71F1000128BF6FF0004038BD08B5BC
:104218000246FEF765FC70B1D0E904319B1A61EBE8
:10422800E272B3F1004F72F1000104DA002AACBF68
:104238001846002008BD6FF00040FBE738B502467D
:10424800EFF31185102383F31288BFF36F8F036890
:10425800CBB1FEF745FC04461046FEF753FC00229E
:104268004FF000438442C0E9042306D1FEF740FC26
:10427800FFF7CDFF0021FDF79DFD002085F3118894
:10428800BFF36F8F38BD6FF01500F7E708B5FEF77D
:1042980045FD08BD0A44914200F1FF3300D1704743
:1042A80010B511F8014B03F8014F9142F9D110BD37
:1042B80002440346934200D1704703F8011BF9E713
:1042C80010B5024601448A42134603D01C780132D5
:1042D800002CF8D1181A10BDF0B5C3F13707044601
:1042E800FFB203F01F031046082BE6B233D0102BA1
:1042F8003ED06508A40844EA817445EAC1752D19C1
:104308004FEA910242EB5102290941EA02716D1804
:1043180042EB1212290A41EA02616D1842EB12229D
:10432800290C41EA02416D1842EB1242AD1842F1E4
:104338000002EC0844EA4274D10804EB8402A6EBBC
:104348004205EDB2092D0CD90134A5F10A0541F158
:104358000001EDB212E0E40844EA417406F00705F2
:10436800C908303554EA010200F8015BBCD1F0BD40
:10437800240944EA017406F00F050909092D84BFD0
:10438800ED19EDB2EDE70000014800687047000044
:0443980014020020EB
:08439C0020BEFF7F01000000BC
:1043A400000000003C4400088106000800000000F2
:1043B400000000005C440008000000009C45000868
:1043C400000000003C450008000000007C44000898
:1043D400000000007C450008000000005C45000867
:1043E400000000001C45000800000000FC44000818
:1043F40000000000DC44000800000000BC44000889
:10440400000000009C440008B333000800000000D2
:1044140000000000BC4500081D1600080000000054
:10442400251D0008000000006111000800000000C4
:0844340000000000DC45000857
:10443C00914F000800000000D848000846000020FA
:10444C00000000003D140008000000000000000007
:10445C0029500008984A0008C84800085C00002051
:10446C000000000000000000000000000000000040
:10447C00734F000800000000000000004400002002
:10448C0000000000091300080000000000000000FC
:10449C009E4F00083C4900088C480008480000204A
:1044AC00B40200201D1700080000000000000000EE
:1044BC00AC4F0008504900088C4800084A00002006
:1044CC00C80200201D1700080000000000000000BA
:1044DC00BA4F0008644900088C4800084C000020C2
:1044EC00DC0200201D170008000000000000000086
:1044FC00C84F0008784900088C4800084E0000207E
:10450C00F00200201D170008000000000000000051
:10451C00D64F00088C4900088C4800085000002039
:10452C00040300201D17000800000000000000001C
:10453C00E44F0008A04900088C48000852000020F5
:10454C00180300201D1700080000000000000000E8
:10455C00F24F0008B44900088C48000854000020B1
:10456C002C0300201D1700080000000000000000B4
:10457C0000500008C84900088C480008560000206C
:10458C00400300201D170008000000000000000080
:10459C000E500008DC4900088C4800085800002028
:1045AC00540300201D17000800000000000000004C
:1045BC003A5000089C4A0008F44800085E000020AD
:1045CC00140000201D1C000800000000000000006A
:1045DC001C500008F0490008B04800085A000020A0
:1045EC0068030020C917000800000000000000004C
:1045FC000000000053330008000000005333000893
:10460C000000000053330008000000005333000882
:10461C000000000053330008000000005333000872
:10462C00714F00089D1100086F4F00089D11000884
:10463C006D4F00089D1100086B4F00089D1100087C
:10464C00694F00089D11000800000000533300085A
:10465C000000000053330008000000005333000832
:10466C000000000053330008000000005333000822
:10467C000000000053330008000000005333000812
:10468C000000000053330008000000005333000802
:10469C0000000000533300080000000053330008F2
:1046AC000000000053330008674F00089D110008FC
:1046BC0000000000533300080000000053330008D2
:1046CC0000000000533300080000000053330008C2
:1046DC0000000000533300080000000053330008B2
:1046EC000000000053330008DC4500085339000873
:1046FC00DC4500085739000800000000533300085F
:10470C000000000053330008000000005333000881
:10471C000000000053330008000000005333000871
:10472C000000000053330008000000005333000861
:10473C00654F00089D11000800000000533300086D
:10474C000000000053330008000000005333000841
:10475C000000000053330008000000005333000831
:10476C000000000053330008000000005333000821
:10477C000000000053330008000000005333000811
:10478C000000000053330008000000005333000801
:10479C0000000000533300080000000053330008F1
:1047AC0000000000533300080000000053330008E1
:1047BC0000000000533300080000000053330008D1
:1047CC0000000000533300080000000053330008C1
:1047DC0000000000533300080000000053330008B1
:1047EC0000000000533300080000000053330008A1
:1047FC000000000053330008000000005333000891
:10480C000000000053330008000000005333000880
:10481C000000000053330008000000005333000870
:10482C000000000053330008000000005333000860
:10483C000000000053330008000000005333000850
:10484C000000000053330008000000005333000840
:10485C000000000053330008000000005333000830
:10486C000000000053330008000000005333000820
:10487C000000000053330008000000005333000810
:10488C003F370008A5350008B1350008C3350008CE
:10489C00CD350008D93500086D160008E73500083D
:0448AC000000000008
:1048B0005517000873380008AF38000800000000E2
:0848C0000000000000000000F0
:1048C8004F3E00086F3E00088B3E0008A93E0008D6
:1048D80085340008C934000800000000811300086E
:0C48E8006B3500080000000013350008CC
:1048F400CB3F0008953F0008D13E0008E11A0008AC
:04490400ED3F00087B
:10490800DC45000850000000000000200000000006
:1049180000000B06020000002449000800000008FF
:10492800564F000826000206000000205E4F0008CF
:1049380020000B11FFFF00000020024008000000CB
:104948003000000000010000FFFF0000001C0240D2
:10495800070000003000000080000000FFFF00009A
:10496800001802400600000030000000400000006F
:10497800FFFF0000001402400500000030000000A6
:1049880020000000FFFF00000010024004000000AB
:104998003000000010000000FFFF0000000C024083
:1049A800030000003000000008000000FFFF0000C6
:1049B800000802400200000030000000040000006F
:1049C800FFFF00000004024001000000300000006A
:1049D80002000000FFFF000000000240000000008D
:1049E800300000000100000089380008084A00086B
:1049F8000100000000540040A0860100104A000891
:104A08004000000000002000184A000801000000D3
:104A1800204A000802000000C40200004002000012
:104A280024030000400200009C4500087C45000863
:104A38005C4500083C4500081C450008FC4400088B
:104A4800DC440008BC4400089C4400080000000046
:104A5800000000000000000000000000000000004E
:104A6800000000000000000000000000000000003E
:104A7800000000000000000000000000000000002E
:104A8800000000000000000000000000000000001E
:104A980000380240004400405C4400081104000053
:104AA800C04A0008010000000000000000000000EB
:104AB80000000000C84A0008400000000000020092
:104AC800D04A000801000000D84A0008020000008F
:104AD800470000000002000067000000000000001E
:104AE800A4430008A4430008244400082C440008F8
:104AF8003C4400083C4400080010000000304932E3
:104B08004320627573206973206E6F74207265612B
:104B18006479210A0D004661696C656420746F2010
:104B280077726974652F7265616420493243206425
:104B380065766963652061646472657373200A0D24
:104B48000072302F61313A202030782530387820B3
:104B58002072312F61323A20203078253038782081
:104B68002072322F61333A20203078253038780A85
:104B78000072332F61343A2020307825303878207D
:104B88007231322F69703A202030782530387820F9
:104B98007231342F6C723A20203078253038780AF8
:104BA8000020787073723A20203078253038780ADF
:104BB800004661756C74696E6720696E73747275EE
:104BC8006374696F6E206164647265737320287200
:104BD80031352F7063293A203078253038780A002B
:104BE800556E68616E646C6564204952516E3A2056
:104BF80025640A002A2A2A2A2A204D50552046418F
:104C0800554C54202A2A2A2A2A0A00202053746143
:104C1800636B696E67206572726F722028636F6EAE
:104C2800746578742061726561206D6967687420A5
:104C38006265206E6F742076616C6964290A0020B1
:104C480020556E737461636B696E67206572726F4D
:104C5800720A0020204461746120416363657373A4
:104C68002056696F6C6174696F6E0A0020204D4D83
:104C780046415220416464726573733A2030782546
:104C8800780A002020496E737472756374696F6EB8
:104C9800204163636573732056696F6C6174696F33
:104CA8006E0A002020466C6F6174696E672D706F04
:104CB800696E74206C617A792073746174652070F0
:104CC8007265736572766174696F6E206572726F52
:104CD800720A002A2A2A2A2A205553414745204683
:104CE80041554C54202A2A2A2A2A0A00202044699D
:104CF800766973696F6E206279207A65726F0A002F
:104D08002020556E616C69676E6564206D656D6FF6
:104D18007279206163636573730A0020204E6F20E7
:104D2800636F70726F636573736F7220696E7374EB
:104D380072756374696F6E730A002020496C6C6524
:104D480067616C206C6F6164206F66204558435F13
:104D580052455455524E20696E746F2050430A00D4
:104D68002020496C6C6567616C20757365206F66DF
:104D78002074686520455053520A002020417474FD
:104D8800656D707420746F2065786563757465202F
:104D9800756E646566696E656420696E7374727594
:104DA8006374696F6E0A002A2A2A2A2A20425553F8
:104DB800204641554C54202A2A2A2A2A0A00202013
:104DC800537461636B696E67206572726F720A0053
:104DD8002020507265636973652064617461206284
:104DE8007573206572726F720A0020204246415224
:104DF80020416464726573733A20307825780A001C
:104E08002020496D707265636973652064617461FF
:104E180020627573206572726F720A002020496ED5
:104E2800737472756374696F6E206275732065722E
:104E3800726F720A005265736572766564204578F0
:104E480063657074696F6E20280053707572696F9E
:104E5800757320696E746572727570742028495272
:104E6800512000535053454C20696E207468726578
:104E78006164206D6F646520646F6573206E6F7464
:104E880020696E646963617465205053500A002A72
:104E98002A2A2A2A2048415244204641554C542067
:104EA8002A2A2A2A2A0A0020204275732066617558
:104EB8006C74206F6E20766563746F722074616203
:104EC8006C6520726561640A00202044656275671C
:104ED800206576656E740A0020204661756C742022
:104EE800657363616C6174696F6E202873656520F2
:104EF80062656C6F77290A00415243485F45584301
:104F0800455054207769746820726561736F6E200C
:104F180025780A0A002A2A2A2A2A204465627567FF
:104F2800206D6F6E69746F7220657863657074693F
:104F38006F6E202A2A2A2A2A0A002A2A2A2A2A209E
:104F4800257320256429202A2A2A2A2A0A00464C61
:104F58004153485F30005352414D5F30000A060507
:104F68000504010301020101010001696E74657203
:104F7800727570742D636F6E74726F6C6C657240AD
:104F88003430303133633030007263634034303052
:104F98003233383030006770696F40343030323225
:104FA800303030006770696F4034303032316330F0
:104FB80030006770696F403430303231383030003B
:104FC8006770696F40343030323134303000677088
:104FD800696F403430303231303030006770696F7B
:104FE800403430303230633030006770696F40349D
:104FF80030303230383030006770696F40343030CC
:105008003230343030006770696F403430303230BD
:10501800303030006932634034303030353430302D
:105028000072657365742D636F6E74726F6C6C6556
:10503800720073657269616C4034303030343430DA
:105048003000000000000000000001020304060711
:1050580008096D61696E002A2A2A20426F6F7469F7
:105068006E67205A6570687972204F53206275699F
:105078006C642076342E332E30202A2A2A0A0028FF
:105088006E756C6C29002A666C6F61742A000000CA
:105098001533000800000000A933000800000000D4
:1050A80000000000000000001C00002000C20100F9
:1050B800000103000024F400C80000002C000020B8
:1050C8002C000020FFFFFFFFFFFFFFFFFFFFFFFF98
:0450D800FFFFFFFFD8
:1050DC0000000000000000000000000000000000C4
:0C50EC00000000000000000000000000B8
:0450F80015E015E0CA
:0400000508000C21C2
:00000001FF
